{
  "contractName": "Ballot",
  "abi": [
    {
      "inputs": [
        {
          "internalType": "bytes32[]",
          "name": "initialProposals",
          "type": "bytes32[]"
        }
      ],
      "stateMutability": "nonpayable",
      "type": "constructor"
    },
    {
      "inputs": [],
      "name": "chairperson",
      "outputs": [
        {
          "internalType": "address",
          "name": "",
          "type": "address"
        }
      ],
      "stateMutability": "view",
      "type": "function"
    },
    {
      "inputs": [
        {
          "internalType": "uint256",
          "name": "",
          "type": "uint256"
        }
      ],
      "name": "proposals",
      "outputs": [
        {
          "internalType": "bytes32",
          "name": "name",
          "type": "bytes32"
        },
        {
          "internalType": "uint256",
          "name": "voteCount",
          "type": "uint256"
        }
      ],
      "stateMutability": "view",
      "type": "function"
    },
    {
      "inputs": [
        {
          "internalType": "address",
          "name": "",
          "type": "address"
        }
      ],
      "name": "voters",
      "outputs": [
        {
          "internalType": "uint256",
          "name": "vote",
          "type": "uint256"
        },
        {
          "internalType": "bool",
          "name": "voted",
          "type": "bool"
        },
        {
          "internalType": "uint256",
          "name": "weight",
          "type": "uint256"
        }
      ],
      "stateMutability": "view",
      "type": "function"
    },
    {
      "inputs": [
        {
          "internalType": "address",
          "name": "voter",
          "type": "address"
        }
      ],
      "name": "grantVotingRight",
      "outputs": [],
      "stateMutability": "nonpayable",
      "type": "function"
    },
    {
      "inputs": [
        {
          "internalType": "uint256",
          "name": "_proposal",
          "type": "uint256"
        }
      ],
      "name": "vote",
      "outputs": [],
      "stateMutability": "nonpayable",
      "type": "function"
    },
    {
      "inputs": [],
      "name": "winningProposal",
      "outputs": [
        {
          "internalType": "uint256",
          "name": "_winningProposal",
          "type": "uint256"
        }
      ],
      "stateMutability": "view",
      "type": "function"
    },
    {
      "inputs": [],
      "name": "winningProposalName",
      "outputs": [
        {
          "internalType": "bytes32",
          "name": "_winningPropName",
          "type": "bytes32"
        }
      ],
      "stateMutability": "view",
      "type": "function"
    }
  ],
  "bytecode": "0x608060405234801562000010575f80fd5b50604051620010293803806200102983398181016040528101906200003691906200032e565b5f5b81518160ff161015620000cb575f6040518060400160405280848460ff16815181106200006a57620000696200037d565b5b602002602001015181526020015f815250908060018154018082558091505060019003905f5260205f2090600202015f909190919091505f820151815f01556020820151816001015550508080620000c290620003e3565b91505062000038565b503360025f6101000a81548173ffffffffffffffffffffffffffffffffffffffff021916908373ffffffffffffffffffffffffffffffffffffffff1602179055506001805f60025f9054906101000a900473ffffffffffffffffffffffffffffffffffffffff1673ffffffffffffffffffffffffffffffffffffffff1673ffffffffffffffffffffffffffffffffffffffff1681526020019081526020015f20600201819055505062000410565b5f604051905090565b5f80fd5b5f80fd5b5f80fd5b5f601f19601f8301169050919050565b7f4e487b71000000000000000000000000000000000000000000000000000000005f52604160045260245ffd5b620001d6826200018e565b810181811067ffffffffffffffff82111715620001f857620001f76200019e565b5b80604052505050565b5f6200020c62000179565b90506200021a8282620001cb565b919050565b5f67ffffffffffffffff8211156200023c576200023b6200019e565b5b602082029050602081019050919050565b5f80fd5b5f819050919050565b620002658162000251565b811462000270575f80fd5b50565b5f8151905062000283816200025a565b92915050565b5f6200029f62000299846200021f565b62000201565b90508083825260208201905060208402830185811115620002c557620002c46200024d565b5b835b81811015620002f25780620002dd888262000273565b845260208401935050602081019050620002c7565b5050509392505050565b5f82601f8301126200031357620003126200018a565b5b81516200032584826020860162000289565b91505092915050565b5f6020828403121562000346576200034562000182565b5b5f82015167ffffffffffffffff81111562000366576200036562000186565b5b6200037484828501620002fc565b91505092915050565b7f4e487b71000000000000000000000000000000000000000000000000000000005f52603260045260245ffd5b7f4e487b71000000000000000000000000000000000000000000000000000000005f52601160045260245ffd5b5f60ff82169050919050565b5f620003ef82620003d7565b915060ff8203620004055762000404620003aa565b5b600182019050919050565b610c0b806200041e5f395ff3fe608060405234801561000f575f80fd5b506004361061007b575f3560e01c80632eba34ac116100595780632eba34ac146100ea57806332d1bf0b14610108578063609ff1bd14610124578063a3ec138d146101425761007b565b80630121b93f1461007f578063013cf08b1461009b5780632e4176cf146100cc575b5f80fd5b61009960048036038101906100949190610784565b610174565b005b6100b560048036038101906100b09190610784565b61032c565b6040516100c39291906107d6565b60405180910390f35b6100d461035a565b6040516100e1919061083c565b60405180910390f35b6100f261037f565b6040516100ff9190610855565b60405180910390f35b610122600480360381019061011d9190610898565b610433565b005b61012c61061b565b60405161013991906108c3565b60405180910390f35b61015c60048036038101906101579190610898565b61071b565b60405161016b939291906108f6565b60405180910390f35b336001805f8373ffffffffffffffffffffffffffffffffffffffff1673ffffffffffffffffffffffffffffffffffffffff1681526020019081526020015f206002015410156101f8576040517f08c379a00000000000000000000000000000000000000000000000000000000081526004016101ef90610985565b60405180910390fd5b3360015f8273ffffffffffffffffffffffffffffffffffffffff1673ffffffffffffffffffffffffffffffffffffffff1681526020019081526020015f206001015f9054906101000a900460ff1615610286576040517f08c379a000000000000000000000000000000000000000000000000000000000815260040161027d906109ed565b60405180910390fd5b5f60015f3373ffffffffffffffffffffffffffffffffffffffff1673ffffffffffffffffffffffffffffffffffffffff1681526020019081526020015f2090506001816001015f6101000a81548160ff02191690831515021790555083815f018190555080600201545f858154811061030257610301610a0b565b5b905f5260205f2090600202016001015f82825461031f9190610a65565b9250508190555050505050565b5f818154811061033a575f80fd5b905f5260205f2090600202015f91509050805f0154908060010154905082565b60025f9054906101000a900473ffffffffffffffffffffffffffffffffffffffff1681565b5f336001805f8373ffffffffffffffffffffffffffffffffffffffff1673ffffffffffffffffffffffffffffffffffffffff1681526020019081526020015f20600201541015610404576040517f08c379a00000000000000000000000000000000000000000000000000000000081526004016103fb90610985565b60405180910390fd5b5f61040d61061b565b8154811061041e5761041d610a0b565b5b905f5260205f2090600202015f015491505090565b60025f9054906101000a900473ffffffffffffffffffffffffffffffffffffffff1673ffffffffffffffffffffffffffffffffffffffff163373ffffffffffffffffffffffffffffffffffffffff16146104c2576040517f08c379a00000000000000000000000000000000000000000000000000000000081526004016104b990610b08565b60405180910390fd5b8060015f8273ffffffffffffffffffffffffffffffffffffffff1673ffffffffffffffffffffffffffffffffffffffff1681526020019081526020015f206001015f9054906101000a900460ff1615610550576040517f08c379a0000000000000000000000000000000000000000000000000000000008152600401610547906109ed565b60405180910390fd5b5f60015f8473ffffffffffffffffffffffffffffffffffffffff1673ffffffffffffffffffffffffffffffffffffffff1681526020019081526020015f2060020154146105d2576040517f08c379a00000000000000000000000000000000000000000000000000000000081526004016105c990610b70565b60405180910390fd5b6001805f8473ffffffffffffffffffffffffffffffffffffffff1673ffffffffffffffffffffffffffffffffffffffff1681526020019081526020015f20600201819055505050565b5f336001805f8373ffffffffffffffffffffffffffffffffffffffff1673ffffffffffffffffffffffffffffffffffffffff1681526020019081526020015f206002015410156106a0576040517f08c379a000000000000000000000000000000000000000000000000000000000815260040161069790610985565b60405180910390fd5b5f805b5f8054905081101561071557815f82815481106106c3576106c2610a0b565b5b905f5260205f209060020201600101541115610702575f81815481106106ec576106eb610a0b565b5b905f5260205f2090600202016001015491508093505b808061070d90610b8e565b9150506106a3565b50505090565b6001602052805f5260405f205f91509050805f015490806001015f9054906101000a900460ff16908060020154905083565b5f80fd5b5f819050919050565b61076381610751565b811461076d575f80fd5b50565b5f8135905061077e8161075a565b92915050565b5f602082840312156107995761079861074d565b5b5f6107a684828501610770565b91505092915050565b5f819050919050565b6107c1816107af565b82525050565b6107d081610751565b82525050565b5f6040820190506107e95f8301856107b8565b6107f660208301846107c7565b9392505050565b5f73ffffffffffffffffffffffffffffffffffffffff82169050919050565b5f610826826107fd565b9050919050565b6108368161081c565b82525050565b5f60208201905061084f5f83018461082d565b92915050565b5f6020820190506108685f8301846107b8565b92915050565b6108778161081c565b8114610881575f80fd5b50565b5f813590506108928161086e565b92915050565b5f602082840312156108ad576108ac61074d565b5b5f6108ba84828501610884565b91505092915050565b5f6020820190506108d65f8301846107c7565b92915050565b5f8115159050919050565b6108f0816108dc565b82525050565b5f6060820190506109095f8301866107c7565b61091660208301856108e7565b61092360408301846107c7565b949350505050565b5f82825260208201905092915050565b7f4e6f20766f74696e6720616363657373000000000000000000000000000000005f82015250565b5f61096f60108361092b565b915061097a8261093b565b602082019050919050565b5f6020820190508181035f83015261099c81610963565b9050919050565b7f416c726561647920766f746564000000000000000000000000000000000000005f82015250565b5f6109d7600d8361092b565b91506109e2826109a3565b602082019050919050565b5f6020820190508181035f830152610a04816109cb565b9050919050565b7f4e487b71000000000000000000000000000000000000000000000000000000005f52603260045260245ffd5b7f4e487b71000000000000000000000000000000000000000000000000000000005f52601160045260245ffd5b5f610a6f82610751565b9150610a7a83610751565b9250828201905080821115610a9257610a91610a38565b5b92915050565b7f4f6e6c79206368616972706572736f6e2063616e2063616c6c207468697320665f8201527f756e6374696f6e00000000000000000000000000000000000000000000000000602082015250565b5f610af260278361092b565b9150610afd82610a98565b604082019050919050565b5f6020820190508181035f830152610b1f81610ae6565b9050919050565b7f416c72656164792068617320766f74696e6720726967687400000000000000005f82015250565b5f610b5a60188361092b565b9150610b6582610b26565b602082019050919050565b5f6020820190508181035f830152610b8781610b4e565b9050919050565b5f610b9882610751565b91507fffffffffffffffffffffffffffffffffffffffffffffffffffffffffffffffff8203610bca57610bc9610a38565b5b60018201905091905056fea26469706673582212208160c8b9b27a29ef9a4e635a67ac197293b653012fa860faeee60fa32a2580fa64736f6c63430008140033",
  "immutableReferences": {},
  "source": "// SPDX-License-Identifier: MIT\n\npragma solidity ^0.8.20;\n\ncontract Ballot{\n\n    struct Voter{\n        uint vote;\n        bool voted;\n        uint weight;\n    }\n\n    struct Proposal {\n        bytes32 name;\n        uint voteCount;\n    }\n\n    Proposal[] public proposals;\n\n    mapping(address => Voter) public voters;\n\n    address public chairperson;\n\n    modifier OnlyChairperson {\n        require(msg.sender == chairperson, \"Only chairperson can call this function\");\n        _;\n    }\n    modifier CanVote (address voter){\n        require(voters[voter].weight >= 1, \"No voting access\");\n        _;\n    }\n    modifier NotVotedYet (address voter){\n        require(!voters[voter].voted, \"Already voted\");\n        _;\n    }\n\n    constructor(bytes32[] memory initialProposals){\n        for(uint8 i; i < initialProposals.length; i++){\n            proposals.push(Proposal({\n                name: initialProposals[i],\n                voteCount: 0\n            }));\n        }\n\n        chairperson = msg.sender;\n        voters[chairperson].weight = 1;\n    }\n\n    // an admin function for granting access to voters\n    function grantVotingRight(address voter) public OnlyChairperson NotVotedYet(voter) {\n        require(voters[voter].weight == 0, \"Already has voting right\");\n\n        voters[voter].weight = 1;\n    }\n\n    // a method function to implement the vote action\n    function vote(uint _proposal) public CanVote(msg.sender) NotVotedYet(msg.sender){\n        Voter storage sender = voters[msg.sender];\n        sender.voted = true;\n        sender.vote = _proposal;\n\n        proposals[_proposal].voteCount += sender.weight;\n    }\n\n    // show winnign proposals\n    \n    // 1. winning proposal id\n    function winningProposal() public CanVote(msg.sender) view returns (uint _winningProposal){\n        uint winningVoteCount = 0;\n        \n        for(uint i = 0; i < proposals.length; i++){\n            if(proposals[i].voteCount > winningVoteCount){\n                winningVoteCount = proposals[i].voteCount;\n                _winningProposal = i;\n            }\n        }\n    }\n\n    // 2. winning proposal name\n    function winningProposalName() public CanVote(msg.sender) view returns(bytes32 _winningPropName){\n        _winningPropName = proposals[winningProposal()].name;\n    }\n}",
  "sourcePath": "/home/arewageek/dev/web3/truffle/firsts/voting-contract/contracts/Ballot.sol",
  "compiler": {
    "name": "solc",
    "version": "0.8.20+commit.a1b79de6.Emscripten.clang"
  },
  "schemaVersion": "3.4.14",
  "updatedAt": "2024-05-19T04:49:56.038Z",
  "devdoc": {
    "kind": "dev",
    "methods": {},
    "version": 1
  },
  "userdoc": {
    "kind": "user",
    "methods": {},
    "version": 1
  }
}